{
  "abi": [
    {
      "inputs": [
        {
          "internalType": "address[]",
          "name": "_allowList",
          "type": "address[]"
        },
        {
          "internalType": "address",
          "name": "_treasury",
          "type": "address"
        }
      ],
      "stateMutability": "nonpayable",
      "type": "constructor"
    },
    {
      "inputs": [],
      "name": "GENERAL_MAX_INDIVIDUAL_CONTRIBUTION",
      "outputs": [
        {
          "internalType": "uint256",
          "name": "",
          "type": "uint256"
        }
      ],
      "stateMutability": "view",
      "type": "function"
    },
    {
      "inputs": [],
      "name": "GENERAL_MAX_TOTAL_CONTRIBUTION",
      "outputs": [
        {
          "internalType": "uint256",
          "name": "",
          "type": "uint256"
        }
      ],
      "stateMutability": "view",
      "type": "function"
    },
    {
      "inputs": [],
      "name": "OPEN_MAX_TOTAL_CONTRIBUTION",
      "outputs": [
        {
          "internalType": "uint256",
          "name": "",
          "type": "uint256"
        }
      ],
      "stateMutability": "view",
      "type": "function"
    },
    {
      "inputs": [],
      "name": "SEED_MAX_INDIVIDUAL_CONTRIBUTION",
      "outputs": [
        {
          "internalType": "uint256",
          "name": "",
          "type": "uint256"
        }
      ],
      "stateMutability": "view",
      "type": "function"
    },
    {
      "inputs": [],
      "name": "SEED_MAX_TOTAL_CONTRIBUTION",
      "outputs": [
        {
          "internalType": "uint256",
          "name": "",
          "type": "uint256"
        }
      ],
      "stateMutability": "view",
      "type": "function"
    },
    {
      "inputs": [
        {
          "internalType": "address",
          "name": "_address",
          "type": "address"
        }
      ],
      "name": "addressAllowed",
      "outputs": [
        {
          "internalType": "bool",
          "name": "",
          "type": "bool"
        }
      ],
      "stateMutability": "view",
      "type": "function"
    },
    {
      "inputs": [
        {
          "internalType": "string",
          "name": "_confirmation",
          "type": "string"
        }
      ],
      "name": "advancePhase",
      "outputs": [],
      "stateMutability": "nonpayable",
      "type": "function"
    },
    {
      "inputs": [
        {
          "internalType": "uint256",
          "name": "",
          "type": "uint256"
        }
      ],
      "name": "allowList",
      "outputs": [
        {
          "internalType": "address",
          "name": "",
          "type": "address"
        }
      ],
      "stateMutability": "view",
      "type": "function"
    },
    {
      "inputs": [],
      "name": "contribute",
      "outputs": [],
      "stateMutability": "payable",
      "type": "function"
    },
    {
      "inputs": [
        {
          "internalType": "address",
          "name": "",
          "type": "address"
        }
      ],
      "name": "contributions",
      "outputs": [
        {
          "internalType": "uint256",
          "name": "",
          "type": "uint256"
        }
      ],
      "stateMutability": "view",
      "type": "function"
    },
    {
      "inputs": [],
      "name": "fundingPhase",
      "outputs": [
        {
          "internalType": "enum Ico.FundingPhase",
          "name": "",
          "type": "uint8"
        }
      ],
      "stateMutability": "view",
      "type": "function"
    },
    {
      "inputs": [],
      "name": "owner",
      "outputs": [
        {
          "internalType": "address",
          "name": "",
          "type": "address"
        }
      ],
      "stateMutability": "view",
      "type": "function"
    },
    {
      "inputs": [],
      "name": "token",
      "outputs": [
        {
          "internalType": "contract SpaceCoin",
          "name": "",
          "type": "address"
        }
      ],
      "stateMutability": "view",
      "type": "function"
    },
    {
      "inputs": [],
      "name": "totalContributions",
      "outputs": [
        {
          "internalType": "uint256",
          "name": "",
          "type": "uint256"
        }
      ],
      "stateMutability": "view",
      "type": "function"
    }
  ],
  "bytecode": {
    "object": "0x60806040523480156200001157600080fd5b5060405162001c0438038062001c048339810160408190526200003491620001a6565b815162000049906004906020850190620000e4565b50600080546101003381026001600160a81b031990921691909117918290556040518392919091046001600160a01b03169062000086906200014e565b6001600160a01b03928316815291166020820152604001604051809103906000f080158015620000ba573d6000803e3d6000fd5b50600380546001600160a01b0319166001600160a01b0392909216919091179055506200028c9050565b8280548282559060005260206000209081019282156200013c579160200282015b828111156200013c57825182546001600160a01b0319166001600160a01b0390911617825560209092019160019091019062000105565b506200014a9291506200015c565b5090565b610e258062000ddf83390190565b5b808211156200014a57600081556001016200015d565b634e487b7160e01b600052604160045260246000fd5b80516001600160a01b0381168114620001a157600080fd5b919050565b60008060408385031215620001ba57600080fd5b82516001600160401b0380821115620001d257600080fd5b818501915085601f830112620001e757600080fd5b8151602082821115620001fe57620001fe62000173565b8160051b604051601f19603f8301168101818110868211171562000226576200022662000173565b6040529283528183019350848101820192898411156200024557600080fd5b948201945b838610156200026e576200025e8662000189565b855294820194938201936200024a565b96506200027f905087820162000189565b9450505050509250929050565b610b43806200029c6000396000f3fe6080604052600436106100dd5760003560e01c80638da5cb5b1161007f578063c145e3a311610059578063c145e3a314610267578063d7bb99ba14610284578063d9b6c8f114610227578063fc0c546a1461028c57600080fd5b80638da5cb5b14610202578063a454bbb914610227578063b37735841461024557600080fd5b806342e94c90116100bb57806342e94c901461014f578063437571541461017c57806362a6d1971461019a57806375a51f34146101d257600080fd5b80630c4ed7d6146100e257806320e3b5ac1461011257806337c0892314610139575b600080fd5b3480156100ee57600080fd5b506100ff683635c9adc5dea0000081565b6040519081526020015b60405180910390f35b34801561011e57600080fd5b5060005461012c9060ff1681565b60405161010991906108cc565b34801561014557600080fd5b506100ff60015481565b34801561015b57600080fd5b506100ff61016a3660046108f4565b60026020526000908152604090205481565b34801561018857600080fd5b506100ff69032d26d12e980b60000081565b3480156101a657600080fd5b506101ba6101b5366004610924565b6102ac565b6040516001600160a01b039091168152602001610109565b3480156101de57600080fd5b506101f26101ed3660046108f4565b6102d6565b6040519015158152602001610109565b34801561020e57600080fd5b506000546101ba9061010090046001600160a01b031681565b34801561023357600080fd5b506100ff69065a4da25d3016c0000081565b34801561025157600080fd5b50610265610260366004610953565b61033f565b005b34801561027357600080fd5b506100ff685150ae84a8cdf0000081565b610265610631565b34801561029857600080fd5b506003546101ba906001600160a01b031681565b600481815481106102bc57600080fd5b6000918252602090912001546001600160a01b0316905081565b6000805b60045481101561033657826001600160a01b03166004828154811061030157610301610a04565b6000918252602090912001546001600160a01b0316036103245750600192915050565b8061032e81610a30565b9150506102da565b50600092915050565b60005461010090046001600160a01b031633146103ad5760405162461bcd60e51b815260206004820152602160248201527f4f6e6c79206f776e65722063616e2063616c6c20746869732066756e6374696f6044820152603760f91b60648201526084015b60405180910390fd5b6000805460ff1660028111156103c5576103c56108b6565b036104d7576040516611d1539154905360ca1b602082015260270160405160208183030381529060405280519060200120816040516020016104079190610a49565b60405160208183030381529060405280519060200120146104c05760405162461bcd60e51b815260206004820152606160248201527f436f6e6669726d6174696f6e20737472696e6720646f6573206e6f74206d617460448201527f6368202d2d20696620796f752077616e7420746f20616476616e636520746f2060648201527f67656e6572616c2c207573652074686520737472696e67202747454e4552414c6084820152602760f81b60a482015260c4016103a4565b600080546001919060ff191682805b021790555050565b600160005460ff1660028111156104f0576104f06108b6565b036105f2576040516327a822a760e11b6020820152602401604051602081830303815290604052805190602001208160405160200161052f9190610a49565b60405160208183030381529060405280519060200120146105de5760405162461bcd60e51b815260206004820152605b60248201527f436f6e6669726d6174696f6e20737472696e6720646f6573206e6f74206d617460448201527f6368202d2d20696620796f752077616e7420746f20616476616e636520746f2060648201527f6f70656e2c207573652074686520737472696e6720274f50454e270000000000608482015260a4016103a4565b600080546002919060ff19166001836104cf565b60405162461bcd60e51b815260206004820152601460248201527343616e6e6f7420616476616e636520706861736560601b60448201526064016103a4565b6000805460ff166002811115610649576106496108b6565b03610658576106566106a4565b565b600160005460ff166002811115610671576106716108b6565b0361067e57610656610841565b600260005460ff166002811115610697576106976108b6565b036106565761065661089d565b6106ad336102d6565b6107035760405162461bcd60e51b815260206004820152602160248201527f41646472657373206e6f7420616c6c6f77656420746f20636f6e7472696275746044820152606560f81b60648201526084016103a4565b69032d26d12e980b6000003460015461071c9190610a78565b106107395760405162461bcd60e51b81526004016103a490610a91565b33600090815260026020526040902054685150ae84a8cdf000009061075f903490610a78565b1061077c5760405162461bcd60e51b81526004016103a490610a91565b336000908152600260205260408120805434929061079b908490610a78565b9250508190555034600160008282546107b49190610a78565b90915550600090506107c7346005610ad4565b60035460405163a9059cbb60e01b8152336004820152602481018390529192506001600160a01b03169063a9059cbb906044016020604051808303816000875af1158015610819573d6000803e3d6000fd5b505050506040513d601f19601f8201168201806040525081019061083d9190610aeb565b5050565b69065a4da25d3016c000003460015461085a9190610a78565b106108775760405162461bcd60e51b81526004016103a490610a91565b33600090815260026020526040902054683635c9adc5dea000009061075f903490610a78565b69065a4da25d3016c000003460015461075f9190610a78565b634e487b7160e01b600052602160045260246000fd5b60208101600383106108ee57634e487b7160e01b600052602160045260246000fd5b91905290565b60006020828403121561090657600080fd5b81356001600160a01b038116811461091d57600080fd5b9392505050565b60006020828403121561093657600080fd5b5035919050565b634e487b7160e01b600052604160045260246000fd5b60006020828403121561096557600080fd5b813567ffffffffffffffff8082111561097d57600080fd5b818401915084601f83011261099157600080fd5b8135818111156109a3576109a361093d565b604051601f8201601f19908116603f011681019083821181831017156109cb576109cb61093d565b816040528281528760208487010111156109e457600080fd5b826020860160208301376000928101602001929092525095945050505050565b634e487b7160e01b600052603260045260246000fd5b634e487b7160e01b600052601160045260246000fd5b600060018201610a4257610a42610a1a565b5060010190565b6000825160005b81811015610a6a5760208186018101518583015201610a50565b506000920191825250919050565b80820180821115610a8b57610a8b610a1a565b92915050565b60208082526023908201527f53656564207068617365206d617820636f6e747269627574696f6e20726561636040820152621a195960ea1b606082015260800190565b8082028115828204841417610a8b57610a8b610a1a565b600060208284031215610afd57600080fd5b8151801515811461091d57600080fdfea26469706673582212208a55076543ba91c4911d2665572dd95eecaa606437b5c4ba3002a2d745749eec64736f6c6343000813003360806040526006805460ff60a01b1916600160a01b1790553480156200002457600080fd5b5060405162000e2538038062000e2583398101604081905262000047916200020b565b6040518060400160405280600981526020016829b830b1b2a1b7b4b760b91b8152506040518060400160405280600381526020016253504360e81b8152508160039081620000969190620002e7565b506004620000a58282620002e7565b5050600680546001600160a01b038085166001600160a01b031992831617909255600580549286169290911691909117905550620000ee620000e43390565b620249f062000123565b60055462000109906001600160a01b03166205573062000123565b5050600780546001600160a01b03191633179055620003db565b6001600160a01b0382166200017e5760405162461bcd60e51b815260206004820152601f60248201527f45524332303a206d696e7420746f20746865207a65726f206164647265737300604482015260640160405180910390fd5b8060026000828254620001929190620003b3565b90915550506001600160a01b038216600081815260208181526040808320805486019055518481527fddf252ad1be2c89b69c2b068fc378daa952ba7f163c4a11628f55a4df523b3ef910160405180910390a35050565b505050565b80516001600160a01b03811681146200020657600080fd5b919050565b600080604083850312156200021f57600080fd5b6200022a83620001ee565b91506200023a60208401620001ee565b90509250929050565b634e487b7160e01b600052604160045260246000fd5b600181811c908216806200026e57607f821691505b6020821081036200028f57634e487b7160e01b600052602260045260246000fd5b50919050565b601f821115620001e957600081815260208120601f850160051c81016020861015620002be5750805b601f850160051c820191505b81811015620002df57828155600101620002ca565b505050505050565b81516001600160401b0381111562000303576200030362000243565b6200031b8162000314845462000259565b8462000295565b602080601f8311600181146200035357600084156200033a5750858301515b600019600386901b1c1916600185901b178555620002df565b600085815260208120601f198616915b82811015620003845788860151825594840194600190910190840162000363565b5085821015620003a35787850151600019600388901b60f8161c191681555b5050505050600190811b01905550565b80820180821115620003d557634e487b7160e01b600052601160045260246000fd5b92915050565b610a3a80620003eb6000396000f3fe608060405234801561001057600080fd5b50600436106101005760003560e01c806361d027b31161009757806395d89b411161006657806395d89b4114610225578063a457c2d71461022d578063a9059cbb14610240578063dd62ed3e1461025357600080fd5b806361d027b3146101c257806370a08231146101d5578063870bd30b146101fe5780638da5cb5b1461021257600080fd5b806323b872dd116100d357806323b872dd14610162578063313ce5671461017557806339509351146101845780635d4522011461019757600080fd5b806306fdde0314610105578063095ea7b31461012357806310bf60291461014657806318160ddd14610150575b600080fd5b61010d610266565b60405161011a9190610847565b60405180910390f35b6101366101313660046108b1565b6102f8565b604051901515815260200161011a565b61014e610312565b005b6002545b60405190815260200161011a565b6101366101703660046108db565b61039c565b6040516012815260200161011a565b6101366101923660046108b1565b6103c0565b6007546101aa906001600160a01b031681565b6040516001600160a01b03909116815260200161011a565b6005546101aa906001600160a01b031681565b6101546101e3366004610917565b6001600160a01b031660009081526020819052604090205490565b60065461013690600160a01b900460ff1681565b6006546101aa906001600160a01b031681565b61010d6103e2565b61013661023b3660046108b1565b6103f1565b61013661024e3660046108b1565b61046c565b610154610261366004610939565b6104da565b6060600380546102759061096c565b80601f01602080910402602001604051908101604052809291908181526020018280546102a19061096c565b80156102ee5780601f106102c3576101008083540402835291602001916102ee565b820191906000526020600020905b8154815290600101906020018083116102d157829003601f168201915b5050505050905090565b600033610306818585610505565b60019150505b92915050565b6006546001600160a01b0316331461037b5760405162461bcd60e51b815260206004820152602160248201527f4f6e6c79206f776e65722063616e2063616c6c20746869732066756e6374696f6044820152603760f91b60648201526084015b60405180910390fd5b6006805460ff60a01b198116600160a01b9182900460ff1615909102179055565b6000336103aa858285610629565b6103b58585856106a3565b506001949350505050565b6000336103068185856103d383836104da565b6103dd91906109bc565b610505565b6060600480546102759061096c565b600033816103ff82866104da565b90508381101561045f5760405162461bcd60e51b815260206004820152602560248201527f45524332303a2064656372656173656420616c6c6f77616e63652062656c6f77604482015264207a65726f60d81b6064820152608401610372565b6103b58286868403610505565b600654600090600160a01b900460ff16156104c657600061048e6032846109cf565b9050600061049c82856109f1565b90506104b4336005546001600160a01b0316846106a3565b6104bf3386836106a3565b50506104d1565b6104d13384846106a3565b50600192915050565b6001600160a01b03918216600090815260016020908152604080832093909416825291909152205490565b6001600160a01b0383166105675760405162461bcd60e51b8152602060048201526024808201527f45524332303a20617070726f76652066726f6d20746865207a65726f206164646044820152637265737360e01b6064820152608401610372565b6001600160a01b0382166105c85760405162461bcd60e51b815260206004820152602260248201527f45524332303a20617070726f766520746f20746865207a65726f206164647265604482015261737360f01b6064820152608401610372565b6001600160a01b0383811660008181526001602090815260408083209487168084529482529182902085905590518481527f8c5be1e5ebec7d5bd14f71427d1e84f3dd0314c0f7b2291e5b200ac8c7c3b925910160405180910390a3505050565b600061063584846104da565b9050600019811461069d57818110156106905760405162461bcd60e51b815260206004820152601d60248201527f45524332303a20696e73756666696369656e7420616c6c6f77616e63650000006044820152606401610372565b61069d8484848403610505565b50505050565b6001600160a01b0383166107075760405162461bcd60e51b815260206004820152602560248201527f45524332303a207472616e736665722066726f6d20746865207a65726f206164604482015264647265737360d81b6064820152608401610372565b6001600160a01b0382166107695760405162461bcd60e51b815260206004820152602360248201527f45524332303a207472616e7366657220746f20746865207a65726f206164647260448201526265737360e81b6064820152608401610372565b6001600160a01b038316600090815260208190526040902054818110156107e15760405162461bcd60e51b815260206004820152602660248201527f45524332303a207472616e7366657220616d6f756e7420657863656564732062604482015265616c616e636560d01b6064820152608401610372565b6001600160a01b03848116600081815260208181526040808320878703905593871680835291849020805487019055925185815290927fddf252ad1be2c89b69c2b068fc378daa952ba7f163c4a11628f55a4df523b3ef910160405180910390a361069d565b600060208083528351808285015260005b8181101561087457858101830151858201604001528201610858565b506000604082860101526040601f19601f8301168501019250505092915050565b80356001600160a01b03811681146108ac57600080fd5b919050565b600080604083850312156108c457600080fd5b6108cd83610895565b946020939093013593505050565b6000806000606084860312156108f057600080fd5b6108f984610895565b925061090760208501610895565b9150604084013590509250925092565b60006020828403121561092957600080fd5b61093282610895565b9392505050565b6000806040838503121561094c57600080fd5b61095583610895565b915061096360208401610895565b90509250929050565b600181811c9082168061098057607f821691505b6020821081036109a057634e487b7160e01b600052602260045260246000fd5b50919050565b634e487b7160e01b600052601160045260246000fd5b8082018082111561030c5761030c6109a6565b6000826109ec57634e487b7160e01b600052601260045260246000fd5b500490565b8181038181111561030c5761030c6109a656fea264697066735822122027f6326bcd1b44d1db63eabbb5c62af912361a49a02c7af1ad5da75e78d7557664736f6c63430008130033",
    "linkReferences": {}
  },
  "methodIdentifiers": {
    "GENERAL_MAX_INDIVIDUAL_CONTRIBUTION()": "0c4ed7d6",
    "GENERAL_MAX_TOTAL_CONTRIBUTION()": "d9b6c8f1",
    "OPEN_MAX_TOTAL_CONTRIBUTION()": "a454bbb9",
    "SEED_MAX_INDIVIDUAL_CONTRIBUTION()": "c145e3a3",
    "SEED_MAX_TOTAL_CONTRIBUTION()": "43757154",
    "addressAllowed(address)": "75a51f34",
    "advancePhase(string)": "b3773584",
    "allowList(uint256)": "62a6d197",
    "contribute()": "d7bb99ba",
    "contributions(address)": "42e94c90",
    "fundingPhase()": "20e3b5ac",
    "owner()": "8da5cb5b",
    "token()": "fc0c546a",
    "totalContributions()": "37c08923"
  },
  "id": 0
}